:020000040800F2
:1000000050070020890100081B0B0008690A00083E
:10001000190B00088F020008850B00080000000083
:100020000000000000000000000000001F0B00089E
:1000300091020008000000001D0B0008210B0008C1
:10004000A3010008A3010008A3010008A301000800
:10005000A3010008A3010008A3010008A3010008F0
:10006000A3010008A3010008A3010008A3010008E0
:10007000A3010008A3010008A3010008A3010008D0
:10008000A3010008A3010008A3010008A3010008C0
:10009000A3010008A3010008A3010008A3010008B0
:1000A000A3010008A3010008A3010008A3010008A0
:1000B000A3010008A3010008A3010008A301000890
:1000C000A3010008A3010008A3010008A301000880
:1000D000A3010008A3010008A3010008A301000870
:1000E000A3010008A3010008A301000800F002F822
:1000F00000F03AF80AA090E8000C82448344AAF188
:100100000107DA4501D100F02FF8AFF2090EBAE885
:100110000F0013F0010F18BFFB1A43F0010318473B
:10012000F00E0000100F0000103A24BF78C878C10C
:10013000FAD8520724BF30C830C144BF04680C60ED
:10014000704700000023002400250026103A28BF35
:1001500078C1FBD8520728BF30C148BF0B60704739
:100160001FB51FBD10B510BD00F058F81146FFF7C0
:10017000F7FF00F0EBFD00F076F803B4FFF7F2FFB5
:1001800003BC00F07DF8000009488047094800479B
:10019000FEE7FEE7FEE7FEE7FEE7FEE7FEE7FEE737
:1001A000FEE7FEE704480549054A064B7047000094
:1001B000830B0008ED0000085001002050070020CC
:1001C00050030020500300204FF0000200B51346FA
:1001D00094469646203922BFA0E80C50A0E80C5067
:1001E000B1F12001BFF4F7AF090728BFA0E80C5018
:1001F00048BF0CC05DF804EB890028BF40F8042B11
:1002000008BF704748BF20F8022B11F0804F18BF7D
:1002100000F8012B7047704770477047754600F033
:100220002BF8AE4605006946534620F00700854688
:1002300018B020B5FFF7B6FFBDE820404FF000062C
:100240004FF000074FF000084FF0000B21F00701BE
:10025000AC46ACE8C009ACE8C009ACE8C009ACE801
:10026000C0098D46704710B50446AFF300802046A4
:10027000BDE81040FFF781BF00487047EC00002048
:1002800001491820ABBEFEE7260002007047FEE7DA
:10029000704700002DE9F84FDFF8B8910024A9F16C
:1002A000040B23460F2709F1040AABF1040EC9E041
:1002B0000125A5402A40AA427DD1674ED1F804C04D
:1002C000ACEB0608B44532D014DCBCF1030F3AD0D5
:1002D00009DCBCF1000F2AD0BCF1010F1CD0BCF12D
:1002E000020F31D11DE0BCF1110F17D0BCF1120F7C
:1002F0002AD119E0B8F5881F19D006DCB8F5803F7F
:1003000015D0B8F5801F1FD111E0B8F5001F0ED031
:10031000B8F5041F18D10AE0CB6815E0CB681B1DA7
:1003200012E0CB6808330FE0CB680C330CE08B682D
:100330002BB1012B4FF0080303D0456104E00423E7
:1003400002E0056100E00023FF2A01D8064601E033
:1003500000F104064FEA840501D9A5F12005D6F87D
:10036000008007FA05FC28EA0C0803FA05F548EABC
:100370000508C6F800804D68ED0062D5374DAE69BE
:1003800046F00106AE61AD6924F0030605F00105F3
:100390000095334D06EB050CDCF80850A607360F28
:1003A00007FA06F825EA0805DFF8B880404503D1CA
:1003B0004FF0000817E044E0DFF8AC80404502D180
:1003C0004FF001080FE0DFF8A480404502D14FF064
:1003D000020808E0DFF89880404502D14FF003089A
:1003E00001E04FF0040808FA06F848EA0508CCF8DE
:1003F00008804D68D9F80060ED024D4601D51643DE
:1004000000E096432E604D68DAF80060AD02554674
:1004100001D5164300E096432E604D68DBF800607E
:10042000AD035D4601D5164300E096432E604D684E
:10043000DEF80060ED03754601D5164300E09643F3
:100440002E60641C0D682A46E5407FF431AFBDE89C
:10045000F88F000008040140000011100010024055
:100460000000014000080140000C01400010014064
:10047000001401408068084000D0012070470AB194
:10048000016170470904FBE701488068704700007C
:10049000480000200248816802781144816070475A
:1004A00048000020074810B5016841F010010160C4
:1004B000032000F067F80F2000F006F800F024F8A1
:1004C000002010BD0020024070B50D4D04464FF4D1
:1004D0007A712878B1FBF0F00A490968B1FBF0F0B5
:1004E00000F0AEFA48B9102C07D200222146501E67
:1004F00000F028F800206C6070BD012070BD000085
:1005000048000020540000200C4808B5816941F0E3
:1005100001018161816901F001010091C16941F02E
:100520008051C161C06900F080500090044841686A
:1005300021F0E06141F00071416008BD001002400F
:1005400000000140F0B40E4B1B680C46C3F30223BD
:10055000C3F10705042D00D90425191D072901D26F
:10056000002300E0DB1E012606FA05F1491E2140AA
:1005700099409E40761E16403143F0BC00F003BB0C
:100580000CED00E0064900F0070208684FF6FF0393
:10059000184040EA0220034A1043086070470000F8
:1005A0000CED00E00000FA052DE9F0470F460500CC
:1005B00061D0434E306800F00700B84209D230687D
:1005C00020F0070038433060306800F00700B84280
:1005D00051D128683B4C810712D5400703D560688C
:1005E00040F4E06060602878000703D5606840F45C
:1005F000605060606068A96820F0F00008436060A7
:100600002878C00728D06868012810D021680228FF
:1006100010D0890700292EDA616821F00301014317
:100620006160FFF731FF804641F288390DE02168B3
:100630008903EFE78901EDE7FFF726FFA0EB08014B
:10064000494502D90320BDE8F0876068696800F079
:100650000C00B0EB810FEFD1306800F00700B8421A
:100660000BD9306820F0070038433060306800F064
:100670000700B84201D00120E5E72878400705D5FA
:100680006068E96820F4E06008436060287800074B
:1006900006D56068296920F4605040EAC1006060B6
:1006A00000F018F86168084AC1F30311515CC840B2
:1006B0000649086006480068FFF706FF0020C2E709
:1006C0000020024000100240FE0F000854000020ED
:1006D0004C0000200E4A51680E4801F00C03042B18
:1006E00011D0082B0FD10C48C1F38343C903C05C60
:1006F0000AD55168084AC1F34041921E515C054A2F
:100700005043B0FBF1F07047044948437047000084
:100710000010024000127A00EE0F000800093D00B0
:100720002DE9F84F040070D02078C04DC00749D0A3
:100730006868C0F38100012807D06868C0F38100B1
:10074000022809D16868C00306D52868800339D516
:1007500060680028E7D035E06068B0F5803F0BD0D6
:1007600010B1B0F5A02F11D0286820F48030286097
:10077000286820F4802002E0286840F48030286057
:10078000606890B1FFF780FE06460AE0286840F4F2
:1007900080202860F0E700BFFFF776FE801B64280A
:1007A00073D828688003F7D50CE0FFF76DFE064686
:1007B00005E000BFFFF768FE801B6428F0D82868BA
:1007C0008003F7D420789A4E80074FF001094FF04C
:1007D000000839D5686810F00C0F07D06868C0F3BE
:1007E0008100022809D16868C00306D42868800700
:1007F00014D52069012808D110E02069B0B1C6F8ED
:100800000090FFF741FE074605E00AE1FFF73CFED6
:10081000C01B0228C4D828688007F7D528686169FA
:1008200020F0F80040EAC10028600DE0C6F8008022
:10083000FFF72AFE074604E0FFF726FEC01B02284A
:1008400023D828688007F7D4207800072CD579486A
:10085000A169D9B1C0F80090FFF716FE074604E081
:10086000FFF712FEC01B02280FD8686A8007F7D571
:1008700071484FF4FA510068B0FBF1F0009000BFEE
:100880000098411E0091FAD20EE080E0C0F800808E
:10089000FFF7FAFD074604E0FFF7F6FDC01B02284C
:1008A00075D8686A8007F7D42078400760D5E86972
:1008B0000027C00008D4E86940F08050E861E8698A
:1008C000012700F0805000905C480168C90513D4EE
:1008D0000168834641F480710160FFF7D5FD8246CF
:1008E00006E000BFFFF7D0FDA0EB0A0064284ED859
:1008F000DBF80000C005F5D5E06801280AD008B192
:10090000052813D0286A20F001002862286A20F008
:10091000040002E0286A40F001002862E06841F229
:10092000883B98B1FFF7B0FD82460BE0286A40F0A3
:1009300004002862EEE700BFFFF7A6FDA0EB0A0166
:1009400059455AD8286A8007F6D50CE0FFF79CFD78
:10095000824605E0FFF798FDA0EB0A0159454CD807
:10096000286A8007F6D41FB1E86920F08050E8615A
:10097000E06988B36968C1F38101022944D0022883
:10098000C6F8608004D0FFF77FFD044638E034E00D
:10099000FFF77AFD074604E0FFF776FDC01B02284B
:1009A0002BD828688001F7D4206AB0F5803F05D1A4
:1009B0006868A16820F4003008436860D4E9080141
:1009C0000843696821F4741108436860C6F86090B0
:1009D000FFF75AFD044606E025E000BFFFF754FD8F
:1009E000001B022809D828688001F7D51BE000BF4A
:1009F000FFF74AFD001B022802D90320BDE8F88F4B
:100A000028688001F4D40EE00128F7D06868226AD3
:100A100000F48031914204D1616A00F47010884280
:100A200001D00120EAE70020E8E7000000100240C2
:100A30000000424280044242540000200070004006
:100A400010B5401EB0F1807F01D3012010BD4FF0E2
:100A5000E02460610F21601700F095F80020A0618C
:100A600007202061002010BDFEE700002DE9F043C3
:100A700085B0002425480094019402940394816970
:100A800041F020018161816901F0200104918169B7
:100A900041F004018161816901F0040104918169DF
:100AA00041F0080181618069DFF8648000F008008E
:100AB00041F6EE450490002229464046FFF7DFFC50
:100AC000DFF850904FF4E047002239464846FFF7E0
:100AD000D6FC0126CDE90056022569464046CDE9FF
:100AE0000245FFF7D7FBA8028DE83100694648466A
:100AF000FFF7D0FBCDE9007669464846CDE90245CF
:100B0000FFF7C8FB05B0BDE8F0830000001002400D
:100B100000080140000C0140FEE7FEE77047704707
:100B2000FFF7B8BC30B58FB028216846FFF74CFB03
:100B300014210AA8FFF748FB01210804CDE90010A1
:100B40000024029402250491CDE907504FF4E010EF
:100B500009906846FFF7E4FD08B172B6FEE70F2082
:100B6000CDE90A054FF48060CDE90C4002210AA8C6
:100B70000E94FFF719FD002801D072B6FEE70FB002
:100B800030BD7047FEE70907090E002804DB00F1BD
:100B9000E02080F80014704700F00F0000F1E02022
:100BA00080F8141D70477047704700000848017CAA
:100BB00041B1012908D0022908D0032901D100211F
:100BC000017470470121FBE70221F9E70321F7E7F0
:100BD000D0000020704770B50446818A0069FFF795
:100BE00049FCA1780125814204D0A070E570FFF78F
:100BF0004BFC6060E0780026012808D1FFF744FC38
:100C00006168401A0F2802D9A0782070E670207819
:100C10006178884210D001281ED0FFF735FCA1680A
:100C2000401AB0F57A7F02D82046FFF7BCFF204675
:100C3000FFF7D0FF20786070207B00280BD0FFF7F3
:100C400023FCA168401A40F6B831884203D32046FD
:100C5000FFF7AAFF267370BD25732046FFF7A6FF96
:100C6000FFF712FCA060E5E701618282704770B572
:100C7000044604980025C4E90230C4E90012A574B2
:100C8000E574FFF701FC60614FF47A7020832574EE
:100C900070BD10B50446082946D2DFE801F004080B
:100CA000161A1E273034A1890022206802E0A1898B
:100CB00001222068FFF7E3FBE18900226068FFF76B
:100CC000DEFB218A0022A0682AE0A1890022206898
:100CD00006E0A189002220680BE0A189012220689A
:100CE000FFF7CDFBE18901226068E8E7A1890122D5
:100CF0002068FFF7C4FBE189002260680BE0A1894E
:100D00000022206802E0A18901222068FFF7B7FBDA
:100D1000E18901226068FFF7B2FB218AA068012205
:100D2000BDE81040FFF7ABBB10BD0B6803604B681C
:100D3000436089688160118881815188C18191886F
:100D400001820021C17481747047000008B5FFF76B
:100D5000A9FB1E4A1E4802F11801FFF7E6FF1B4AD5
:100D60001B48921D02F11E011830FFF7DEFF174AE3
:100D700017480C3202F124013030FFF7D6FF134A36
:100D80001348123202F12A014830FFF7CEFF104813
:100D90004FF400620F496030FFF766FFFFF774FB06
:100DA0000B480B494830A0F11803A0F13002009025
:100DB0003030FFF75CFFFFF7B5FEFFF757FE044842
:100DC0006030FFF708FF00F007F8F8E700000020A8
:100DD00058000020000C01400A48007C40B1012866
:100DE00009D002280AD003280BD1064800F0E9B840
:100DF000044800F0A0B8034800F058B8014800F0DB
:100E0000AEB87047D000002070B50446807C002545
:100E1000072829D2DFE800F00406080A0C181A0097
:100E2000012014E0042012E0022010E003200EE074
:100E300021680620887460688574A0688574E068FD
:100E40008574204600F012F8052000E00720216894
:100E5000887460688574A0688574E068857420462D
:100E6000BDE8704000F002B8A57470BD10B504462E
:100E7000FFF70AFB6169401A218B884215D320686D
:100E8000817CFFF706FF6068817CFFF702FFA068A6
:100E9000817CFFF7FEFEE068817CFFF7FAFEFFF73A
:100EA000F3FA6061A07C401CA07410BD2DE9F041F4
:100EB0000446817C0320002502270126072934D21D
:100EC000DFE801F00409121927090400206886747C
:100ED0006068857403E02068867460688774A06821
:100EE0008574E06885740FE021688E7461688F7482
:100EF000A1688874F5E721688E7461688F74A168B1
:100F00008874E168072088742046BDE8F041FFF747
:100F1000ADBF21688E7461688F74A1688874E068C1
:100F200085742046FFF7A2FFD5E7204600F003F8BE
:100F3000A574BDE8F08110B5044600680021FFF7F4
:100F4000A8FE00216068FFF7A4FE0021A068FFF75B
:100F5000A0FEE068BDE810400021FFF79ABE10B582
:100F60000446807C072829D2DFE800F00406080A3E
:100F70000C181A00012014E0042012E0022010E0F6
:100F800003200EE021680620887461688874A168D7
:100F90008874E16888742046FFF768FF052000E048
:100FA00007202168887461688874A1688874E16882
:100FB00088742046BDE81040FFF758BF0020A07499
:100FC00010BD10B50446C07C10B10020E07410BD07
:100FD000FFF75AFA6169401A218B8842F7D32046FD
:100FE000FFF712FFFFF750FA606110BD0102020324
:100FF0000405060708090A0B0C0D0E0F101000005F
:1010000000000000000001020304060708090000B8
:1010100030100008000000205800000028010008DF
:101020008810000858000020F8060000440100085D
:101030000800040002008000400020000010002092
:1010400000400010000800040008014000080140B2
:10105000000801400008014000080140000801406C
:10106000000C0140000C0140000C01400008014050
:1010700000080140000801400100000010000000CD
:081080000000000000127A00DC
:04000005080000ED02
:00000001FF
