:020000040800F2
:1000000050070020B5010008E50B0008DD0B0008D3
:10001000E10B000871020008F90B00080000000065
:10002000000000000000000000000000ED0B0008D0
:100030007502000800000000E90B0008F10B000841
:10004000CF010008CF010008CF010008CF01000850
:10005000CF010008CF010008CF010008CF01000840
:10006000CF010008CF010008CF010008CF01000830
:10007000CF010008CF010008CF010008CF01000820
:10008000CF010008CF010008CF010008CF01000810
:10009000CF010008CF010008CF010008CF01000800
:1000A000CF010008CF010008CF010008CF010008F0
:1000B000CF010008CF010008CF010008CF010008E0
:1000C000CF010008CF010008CF010008CF010008D0
:1000D000CF010008CF010008CF010008CF010008C0
:1000E000CF010008CF010008CF01000800F002F89E
:1000F00000F050F814A696E8000CB244B344DA4578
:1001000001D100F047F8BAE80F000FA696E83000DA
:10011000A5EB040504EB0607AAEB0704A7F101070A
:100120004FEA15154FEA3414A4F10104AC4201D38F
:1001300000F030F813F0010F18BFFB1A43F0010371
:1001400000F001F8DBE7184778130000981300006F
:10015000103A24BF78C878C1FAD8520724BF30C8F3
:1001600030C144BF04680C60704700007047000055
:100170000023002400250026103A28BF78C1FBD8B0
:10018000520728BF30C148BF0B6070471FB51FBD65
:1001900010B510BD00F031F81146FFF7F7FF00F081
:1001A000E1FD00F04FF803B4FFF7F2FF03BC00F0ED
:1001B00057F800000948804709480047FEE7FEE776
:1001C000FEE7FEE7FEE7FEE7FEE7FEE7FEE7FEE707
:1001D00004480549054A064B70470000F50B000826
:1001E000ED000008500100205007002050030020BF
:1001F00050030020704770477047754600F02CF898
:10020000AE4605006946534620F00700854618B003
:1002100020B5FFF7DDFFBDE820404FF000064FF0AE
:1002200000074FF000084FF0000BAC46ACE8C009E7
:10023000ACE8C009ACE8C009ACE8C00921F007018E
:100240008D46704710B50446AFF300802046BDE8E8
:100250001040FFF7A8BF000000487047580000207A
:1002600001491820ABBEFEE72600020070470000DF
:10027000FEE70000704700002DE9F04F82B00E68E5
:10028000002E00F0FD8041F20042C4F2010204237E
:1002900040F2004E904208BF03234FF6FF7CC4F2A9
:1002A000010E009300240123C1F2100C4FF0000A4C
:1002B0004FF000094BE000BF41F20002C4F201021E
:1002C000009F904208BF022704F00C030F229A40BF
:1002D0002BEA020207FA03F34FEA9A051A4346F89B
:1002E00025204E6840F20C45F202DEF8082054BF8B
:1002F00022EA080242EA0802C4F20105CEF8082008
:100300002A68B30254BF22EA080242EA08022A60BD
:10031000B303DEF8042054BF22EA080242EA0802CE
:10032000F303CEF80420DEF800204FF0010354BFA1
:1003300022EA080242EA0802CEF800200E680AF11A
:10034000010A36FA0AF204F1040400F0998003FA73
:100350000AFB16EA0B08F1D04E68664512DC122E35
:1003600056D8DFE806F0350B4D49555555555555CE
:100370005555555555555545510000BFD1F80C9070
:1003800046E000BF4FF6FF72C1F2210296420FDC39
:100390000022C1F2110296421AD00022C1F21202CA
:1003A000964215D00022C1F22102964210D02FE0D1
:1003B0000022C1F2220296420AD00022C1F231028A
:1003C000964205D00022C1F23202964220D100BFEF
:1003D0008A684AB1012A14BFC0F814B0C0F810B03E
:1003E0004FF0080914E000BF4FF0040910E000BF0F
:1003F000CA6802F104090BE04FF0000908E000BFF1
:10040000CA6802F1080903E0CA6802F10C0900BFDA
:1004100002462646B8F5807F24BF0432203E176886
:100420000F25B54027EA050509FA06F6354315609C
:10043000CA79D2067FF582AF41F21803C4F20203F3
:100440001A68AEF57E7642F001021A601A6802F070
:1004500001020192019A2AF0030256F802B040F616
:100460000002C4F20102904208D040F60042C4F2F9
:10047000010290427FF420AF012725E7002723E700
:1004800002B0BDE8F08F00008068084018BF01206E
:1004900070470000002A08BF09040161704700008E
:1004A00040F24C10C2F200000068704740F2480071
:1004B00040F24C11C2F20000C2F2000100780A685A
:1004C000104408607047000080B542F20000C4F29A
:1004D0000200016841F010010160032000F07AF889
:1004E0000F2000F005F800F027F8002080BD000084
:1004F00070B540F24806C2F2000640F25001327870
:10050000C2F200014FF47A730968B3FBF2F20446B9
:10051000B1FBF2F1084600F04BFB0F2C4FF0010548
:1005200008D838B94FF0FF3021460022002500F0EE
:1005300025F87460284670BD82B041F21800C4F2FC
:1005400002000168022241F001010160016801F02E
:10055000010101910199416841F080514160406879
:1005600000F08050009000980420C4F2010001685F
:1005700062F31A61016002B07047000010B54EF6D8
:100580000C5CCEF2000CDCF80030C3F3022E8EF0CF
:100590000704042C28BF0424BEF103034FF0FF3EE0
:1005A0000EFA04F438BF0023A14399400EFA03F376
:1005B0009A43114300F00F0200F160430901043A2D
:1005C00003F564436244002848BF02F10C0319702C
:1005D00010BD00004EF60C51CEF200010A684FF635
:1005E000FF031A4060F30A2242F0806040F0FD7081
:1005F00008607047002804BF012070472DE9F043D0
:1006000081B042F20008C4F202080446D8F80000A3
:100610000D4600F0070088420CD2D8F8000020F008
:1006200007002843C8F80000D8F8000000F00700D1
:10063000A8426CD1206841F204098107C4F2020982
:1006400017D5410705D5D9F8001041F4E061C9F884
:100650000010010705D5D9F8001041F46051C9F820
:100660000010D9F80010A26821F0F0011143C9F878
:100670000010C00742D1D8F8000000F00700A842DF
:100680000CD9D8F8000020F007002843C8F8000073
:10069000D8F8000000F00700A84238D120684107D0
:1006A00007D5D9F80010E26821F4E0611143C9F8D8
:1006B0000010000708D5D9F80000216920F4605027
:1006C00040EAC100C9F80000D9F8002002F00C008F
:1006D000082841F20020C0F27A004DD141F298433F
:1006E000C2F38341C0F60003595CD20338D440F60C
:1006F0000010C0F23D0048433EE000BF606859F87A
:10070000041C022808D0012826D1890306D4012020
:1007100001B0BDE8F08300BF8901F8D5D9F8001019
:1007200021F003010843C9F80000FFF7B9FE0646AF
:1007300041F28837D9F80000616800F00C00B0EB96
:10074000810F98D0FFF7ACFE801BB842F2D903208E
:1007500001B0BDE8F08300BF8907D8D5DEE700BF50
:10076000D9F8002041F29643C2F34042C0F600039C
:100770009A5C4843B0FBF2F0D9F8001041F286428F
:10078000C1F30311C0F60002515C40F2500220FA9E
:1007900001F140F24C00C2F200000068C2F2000217
:1007A0001160FFF7A5FE002001B0BDE8F083000056
:1007B000002804BF012070472DE9F04182B00446B3
:1007C000007841F20006C007C4F202060CD070683F
:1007D00000F00C00042840F081803068800303D5CD
:1007E0006068002800F04681207880071BD570687B
:1007F00010F00C0F09D0706800F00C00082840F0D1
:1008000087807068C00300F183803068800703D55B
:100810002069012840F02E813068616920F0F800DD
:1008200040EAC10030602078000713D420784007E8
:100830002CD4E569002D00F01881706800F00C00E0
:10084000082840F0A780012D40F00481012002B06B
:10085000BDE8F081A069002800F084800020C4F287
:1008600042200121C0F88014FFF71AFE054600BFA0
:10087000706A800700F1B280FFF712FE401B022869
:10088000F6D9032002B0BDE8F08100BFF0695FEA4D
:10089000C00808D4F06940F08050F061F06900F0C1
:1008A00080500090009847F20007C4F200073868B3
:1008B000C00549D4386840F480703860FFF7F0FD17
:1008C000054600BF3868C0053ED4FFF7E9FD401B70
:1008D0006428F7D9032002B0BDE8F081706800F009
:1008E0000C00082803D17068C0033FF576AF61683B
:1008F0003068002900F00C81B1F5A02F00F00081D4
:10090000B1F5803F40F01A8140F480301CE100BF17
:100910002069002840F20000C4F2422000F08880E4
:1009200001210160FFF7BCFD054600BF306880076C
:100930003FF572AFFFF7B4FD401B0228F6D9032044
:1009400002B0BDE8F08100BFE168306A002900F024
:100950009D80052900F09280012940F0AF8040F091
:100960000100B1E00020C4F242200021C0F8801450
:10097000FFF796FD054600BF706A80077FF556AF0A
:10098000FFF78EFD401B0228F6D9032002B0BDE818
:10099000F08100BF0027C4F2422700203866FFF72D
:1009A0007FFD022D05460DD13068800140F1DE80CB
:1009B000FFF776FD401B02284FF00300F4D902B088
:1009C000BDE8F081306880014FD5FFF769FD401B1D
:1009D00002284FF00300F5D9F1E700BF40F25000C4
:1009E000C2F20000006844F6D351C1F26201A0FBDC
:1009F0000101480A019000BF00BF0198411E002874
:100A000001913FF413AF00BF0198411E00280191EE
:100A10003FF40CAF00BF0198411E002801913FF444
:100A200005AF00BF0198411E00280191E4D1FDE609
:100A300000210160FFF734FD054600BF30688007E4
:100A40007FF5F1AEFFF72CFD401B02284FF00300AD
:100A5000F4D9B4E77068216A00F480328A4209D17F
:100A6000616A00F47010884204D1002002B0BDE831
:100A7000F08100BF012002B0BDE8F08140F0040029
:100A80003062306A40F001001EE000BF20F001003B
:100A90003062306A20F004003062FFF701FD054645
:100AA00041F28837306A800720D5FFF7F9FC401BF8
:100AB000B8424FF00300F5D981E700BF20F00100F4
:100AC0003062306A20F004003062FFF7E9FC05462E
:100AD00041F28837306A800708D4FFF7E1FC401BF9
:100AE000B842F7D9032002B0BDE8F081B8F1000F99
:100AF0003FF59FAEF06920F08050F06199E600BFAD
:100B000040F480203060306840F480301CE000BF4A
:100B100020F480303060306820F480203060FFF7AF
:100B2000BFFC0546306880037FF55EAEFFF7B8FC7A
:100B3000401B64284FF00300F4D940E720F48030D4
:100B40003060306820F480203060FFF7A9FC054653
:100B5000306880033FF548AEFFF7A2FC401B6428D5
:100B6000F6D9032002B0BDE8F08100BF206AB0F5DD
:100B7000803F05D17168A26821F400311143716092
:100B80007168626A21F47411114308437060012096
:100B90003866FFF785FC0446306880013FF565AF95
:100BA000FFF77EFC001B02284FF00300F4D906E794
:100BB000411E0020B0EB116F1CBF012070474EF2A8
:100BC0001002CEF2000251604EF62351CEF2000127
:100BD000F0230B700721906011607047FEE7000062
:100BE000FEE70000FEE700007047000070470000CD
:100BF000FFF75CBC70470000FEE700007047000094
:100C00007047000040F23010C2F20000017C03295E
:100C100088BF704740F20122C900C0F2030222FAE5
:100C200001F10174704700007047000010B50446E0
:100C30000069A18AFFF728FCA178884205D0A0703E
:100C40000120E070FFF72CFC6060E07801280DD1F6
:100C5000FFF726FC6168401A102807D3A07800210E
:100C60002070E1706178884204D11EE020786178BC
:100C700088421AD0012809D1012020732046FFF7AD
:100C8000C1FFFFF70DFCA0600DE000BFFFF708FCFF
:100C9000A168401AB0F57A7F02D82046FFF7AEFF70
:100CA0002046FFF7C1FF20786070207B68B1FFF716
:100CB000F7FBA168401A40F6B831884238BF10BD32
:100CC0002046FFF79DFF0020207310BD0161828246
:100CD00070470000B0B504460498002584E80E0073
:100CE000E0606582FFF7DCFB60614FF47A7020837F
:100CF0002574B0BD072988BF704770B541F2B04375
:100D0000C0F600035C5C41F2B84341F2A842C0F671
:100D10000003C0F600025D5C0368525C81890646F0
:100D20001846FFF7B7FB7068F1892246FFF7B2FB60
:100D3000B068318A2A46BDE87040FFF7ABBB0000BF
:100D40000B6803601388D1F804C083815388C0F80E
:100D500004C08968C3819288816000210282418237
:100D60007047000090B040F60048C4F20108FFF759
:100D7000ABFB40F2000540F2B80AC2F20005C2F235
:100D8000000A05F1180150462A46FFF7D9FF0AF17B
:100D9000180905F12401AA1D4846FFF7D1FF0AF101
:100DA000300405F1300105F10C022046FFF7C8FFC1
:100DB0000AF1480705F13C0105F112023846FFF738
:100DC000BFFF0AF16005284641464FF40062FFF775
:100DD0007DFFFFF765FB40F23016C2F20006304699
:100DE00051464A4623460097FFF774FF002401202E
:100DF000CDE90B44CDE9094406900A904FF4E01088
:100E00004FF4803102270F9006A8CDE90714CDE9F1
:100E10000D71FFF7CDFC28B1EFF3108072B600BF63
:100E2000FEE700BF0F20CDE901074FF48060CDE958
:100E3000040401A802210394FFF7DCFB20B1EFF3C7
:100E4000108072B6FEE700BF4FF0000941F21800B3
:100E5000CDE90899CDE90699C4F202000168A8F528
:100E6000806441F0200101600168002201F020014E
:100E700001910199016841F6EE4741F004010160DA
:100E8000016801F0040101910199016841F0080134
:100E90000160006841F6EE4100F008000190019801
:100EA0002046FFF7F7FA40464FF4E0410022FFF7F3
:100EB000F1FA069706AF4FF0010B4FF0020A2046F9
:100EC0003946CDE907B9CDF824A0FFF7D5F94FF49D
:100ED000006006A981E8010640463946FFF7CCF9D3
:100EE0004FF4E040CDE9060B40463946CDE9089A7B
:100EF000FFF7C2F92846FFF799FE307C0328F9D89E
:100F0000DFE800F0060E020A304600F06DFAF1E765
:100F1000304600F055FAEDE7304600F0A1FAE9E777
:100F2000304600F0DDF9E5E7B0B5817C062911D83F
:100F3000DFE801F00428080C2C3B400090E80E107C
:100F400001243AE090E80E10022436E090E80E10FA
:100F5000032432E001680446084600210025FFF71B
:100F6000C9FE60680021FFF7C5FEA0680021FFF7F9
:100F7000C1FEE0680021FFF7BDFEE07CA5740130F2
:100F8000E074B0BD90E80E10042416E0D0E9001C17
:100F9000D0E9023406228A7400218CF81210997468
:100FA000A174044600F07AF9204690E80E1005245A
:100FB00003E000BF90E80E1007248C7400219174A8
:100FC00099748CF81210BDE8B04000F067B90000C9
:100FD000B0B5817C062917D8DFE801F0042E0A108D
:100FE00034434A0090E80E1000248C74012144E040
:100FF00090E80E1000248C7402213EE090E80E1060
:1010000000248C74032138E001680446084600215E
:101010000025FFF76FFE60680021FFF76BFEA068F8
:101020000021FFF767FEE0680021FFF763FEE07C28
:10103000A5740130E074B0BD90E80E1000248C74EB
:1010400004211AE0D0E9001CD0E9023400228A749D
:1010500006218CF812109A74A274044600F01EF94E
:10106000204690E80E1000248C74052105E000BF96
:1010700090E80E1000248C74072191749C748CF8F5
:101080001240BDE8B04000F009B90000B0B5817C65
:1010900006292FD8DFE801F00446122054627000C0
:1010A00090E80E1000248C740121947499748CF8CB
:1010B0001240BDE8B04000F0F1B800BF90E80E105B
:1010C00000248C749474022199748CF81240BDE849
:1010D000B04000F0E3B800BF90E80E1000248C741C
:1010E0009474032199748CF81240BDE8B04000F06C
:1010F000D5B800BF01680446084600210025FFF767
:10110000F9FD60680021FFF7F5FDA0680021FFF7F9
:10111000F1FDE0680021FFF7EDFDE07CA5740130F2
:10112000E074B0BD90E80E1000248C749474042117
:1011300099748CF81240BDE8B04000F0AFB800BF21
:1011400090E80610C46800238B74062193748CF811
:101150001210A374044600F0A1F8204690E80E1087
:1011600000248C749474052199748CF81240BDE8A5
:10117000B04000F093B800BF90E80E1000248C74CB
:101180009474072199748CF81240BDE8B04000F0C7
:1011900085B80000827C0168062A3DD8DFE802F0AD
:1011A0000454202E12627000002200F1040C8A7494
:1011B0009CE80A108A7401219A748CF8121000F0CD
:1011C0006DB800BF002200F1040C8A749CE80A107C
:1011D0008A7406219A748CF8121000F05FB800BF70
:1011E000002200F1040C8A749CE80A108A7402211F
:1011F0009A748CF8121000F051B800BF002200F170
:10120000040C8A749CE80A108A7403219A748CF87E
:10121000121000F043B800BFB0B5044608460021E4
:101220000025FFF767FD60680021FFF763FDA068F8
:101230000021FFF75FFDE0680021FFF75BFDE07C28
:10124000A5740130E074B0BD002200F1040C8A7472
:101250009CE80A108A7404219A748CF8121000F029
:101260001DB800BF002200F1040C8A749CE80A102B
:101270008A7405219A748CF8121000F00FB800BF20
:10128000002200F1040C8A749CE80A108A74072179
:101290009A748CF8121000F001B8000010B50446E2
:1012A000FFF7FEF86169228B401A904238BF10BDEB
:1012B0002068817CFFF71EFD6068817CFFF71AFDC6
:1012C000A068817CFFF716FDE068817CFFF712FDC6
:1012D000FFF7E6F8A17C6061481CA07410BD000017
:1012E000B0B5817C062925D8DFE801F00459143A0D
:1012F0004A590400016842688368D0F80CC0012490
:101300008C740021917499748CF81210BDE8B0406F
:10131000FFF7C4BF90E80E1001248C740221917471
:101320000321997400218CF81210BDE8B040FFF73A
:10133000B5BF00BF01680446084600210025FFF73D
:10134000D9FC60680021FFF7D5FCA0680021FFF7F9
:10135000D1FCE0680021FFF7CDFCA574B0BD00BF53
:1013600090E80E1001248C74022191740321997469
:1013700007218CF81210BDE8B040FFF78FBF00BF07
:1013800090E80E1001248C74022191740321997449
:1013900000218CF812100446FFF780FF20460168F8
:1013A000426801248368D0F80CC08C7402219174C7
:1013B000002199748CF81210BDE8B040FFF76EBFA1
:1013C00010B5044600680021FFF794FC6068002116
:1013D000FFF790FCA0680021FFF78CFCE06800217B
:1013E000BDE81040FFF786BC10B5817C062911D8F6
:1013F000DFE801F00414080C18262A0090E80E100B
:10140000012424E090E80E10022420E090E80E1061
:1014100003241CE00021817410BD00BF90E80E1071
:10142000042414E0D0E900C2D0E9023406218CF88B
:10143000121091749974A1740446FFF72FFF20468F
:1014400090E80E10052402E090E80E1007248C743A
:1014500094749C748CF81240BDE81040FFF71EBFD6
:10146000C17C03290CD8DFE801F00309050700BFA0
:10147000FFF75ABDFFF70ABEFFF78CBEFFF7A8BD06
:101480000021C1747047000000000000000001024C
:1014900003040607080901020203040506070809F8
:1014A0000A0B0C0D0E0F10100001000001010001CD
:1014B0000000010001000101000000010001010124
:1014C000E01400080000002058000000500100084F
:1014D0003815000858000020F806000070010008C8
:1014E00008000400020080004000200000100020DE
:1014F00000400010000800040008014000080140FE
:1015000000080140000801400008014000080140B7
:10151000000C0140000C0140000C0140000801409B
:101520000008014000080140010000001000000018
:0815300000127A000000000027
:04000005080000ED02
:00000001FF
