:020000040800F2
:10000000D0060020B5010008F90E0008F10E000826
:10001000F50E0008710200082D1000080000000015
:100020000000000000000000000000002110000897
:100030007502000800000000FD0E000825100008F1
:10004000CF010008CF010008CF010008CF01000850
:10005000CF010008CF010008CF010008CF01000840
:10006000CF010008CF010008CF010008CF01000830
:10007000CF010008CF010008CF010008CF01000820
:10008000CF010008CF010008CF010008CF01000810
:10009000CF010008CF010008CF010008CF01000800
:1000A000CF010008CF010008CF010008CF010008F0
:1000B000CF010008CF010008CF010008CF010008E0
:1000C000CF010008CF010008CF010008CF010008D0
:1000D000CF010008CF010008CF010008CF010008C0
:1000E000CF010008CF010008CF01000800F002F89E
:1000F00000F050F814A696E8000CB244B344DA4578
:1001000001D100F047F8BAE80F000FA696E83000DA
:10011000A5EB040504EB0607AAEB0704A7F101070A
:100120004FEA15154FEA3414A4F10104AC4201D38F
:1001300000F030F813F0010F18BFFB1A43F0010371
:1001400000F001F8DBE7184764100000841000009D
:10015000103A24BF78C878C1FAD8520724BF30C8F3
:1001600030C144BF04680C60704700007047000055
:100170000023002400250026103A28BF78C1FBD8B0
:10018000520728BF30C148BF0B6070471FB51FBD65
:1001900010B510BD00F031F81146FFF7F7FF00F081
:1001A00047FF00F04FF803B4FFF7F2FF03BC00F085
:1001B00057F800000948804709480047FEE7FEE776
:1001C000FEE7FEE7FEE7FEE7FEE7FEE7FEE7FEE707
:1001D00004480549054A064B7047000029100008ED
:1001E000ED000008D0000020D0060020D002002042
:1001F000D0020020704770477047754600F02CF819
:10020000AE4605006946534620F00700854618B003
:1002100020B5FFF7DDFFBDE820404FF000064FF0AE
:1002200000074FF000084FF0000BAC46ACE8C009E7
:10023000ACE8C009ACE8C009ACE8C00921F007018E
:100240008D46704710B50446AFF300802046BDE8E8
:100250001040FFF7A8BF00000048704710000020C2
:1002600001491820ABBEFEE72600020070470000DF
:10027000FEE70000704700002DE9F04F82B00E68E5
:10028000002E00F0FD8041F20042C4F2010204237E
:1002900040F2004E904208BF03234FF6FF7CC4F2A9
:1002A000010E009300240123C1F2100C4FF0000A4C
:1002B0004FF000094BE000BF41F20002C4F201021E
:1002C000009F904208BF022704F00C030F229A40BF
:1002D0002BEA020207FA03F34FEA9A051A4346F89B
:1002E00025204E6840F20C45F202DEF8082054BF8B
:1002F00022EA080242EA0802C4F20105CEF8082008
:100300002A68B30254BF22EA080242EA08022A60BD
:10031000B303DEF8042054BF22EA080242EA0802CE
:10032000F303CEF80420DEF800204FF0010354BFA1
:1003300022EA080242EA0802CEF800200E680AF11A
:10034000010A36FA0AF204F1040400F0998003FA73
:100350000AFB16EA0B08F1D04E68664512DC122E35
:1003600056D8DFE806F0350B4D49555555555555CE
:100370005555555555555545510000BFD1F80C9070
:1003800046E000BF4FF6FF72C1F2210296420FDC39
:100390000022C1F2110296421AD00022C1F21202CA
:1003A000964215D00022C1F22102964210D02FE0D1
:1003B0000022C1F2220296420AD00022C1F231028A
:1003C000964205D00022C1F23202964220D100BFEF
:1003D0008A684AB1012A14BFC0F814B0C0F810B03E
:1003E0004FF0080914E000BF4FF0040910E000BF0F
:1003F000CA6802F104090BE04FF0000908E000BFF1
:10040000CA6802F1080903E0CA6802F10C0900BFDA
:1004100002462646B8F5807F24BF0432203E176886
:100420000F25B54027EA050509FA06F6354315609C
:10043000CA79D2067FF582AF41F21803C4F20203F3
:100440001A68AEF57E7642F001021A601A6802F070
:1004500001020192019A2AF0030256F802B040F616
:100460000002C4F20102904208D040F60042C4F2F9
:10047000010290427FF420AF012725E7002723E700
:1004800002B0BDE8F08F0000002A08BF0904016136
:100490007047000040F2C800C2F2000000687047D8
:1004A00040F2000040F2C801C2F20000C2F20001B6
:1004B00000780A68104408607047000080B542F276
:1004C0000000C4F20200016841F010010160032045
:1004D00000F07AF80F2000F005F800F027F800206F
:1004E00080BD000070B540F20006C2F2000640F286
:1004F00008013278C2F200014FF47A730968B3FB45
:10050000F2F20446B1FBF2F1084600F0DBFC0F2CDE
:100510004FF0010508D838B94FF0FF3021460022CE
:10052000002500F025F87460284670BD82B041F2C5
:100530001800C4F202000168022241F001010160CA
:10054000016801F0010101910199416841F0805178
:100550004160406800F08050009000980420C4F290
:100560000100016862F31A61016002B07047000087
:1005700010B54EF60C5CCEF2000CDCF80030C3F384
:10058000022E8EF00704042C28BF0424BEF10303BE
:100590004FF0FF3E0EFA04F438BF0023A143994008
:1005A0000EFA03F39A43114300F00F0200F1604387
:1005B0000901043A03F564436244002848BF02F18C
:1005C0000C03197010BD00004EF60C51CEF2000164
:1005D0000A684FF6FF031A4060F30A2242F0806077
:1005E00040F0FD7008607047002804BF012070478C
:1005F0002DE9F04381B042F20008C4F2020804463B
:10060000D8F800000D4600F0070088420CD2D8F858
:10061000000020F007002843C8F80000D8F80000C8
:1006200000F00700A8426CD1206841F2040981075C
:10063000C4F2020917D5410705D5D9F8001041F4D5
:10064000E061C9F80010010705D5D9F8001041F4A0
:100650006051C9F80010D9F80010A26821F0F0012B
:100660001143C9F80010C00742D1D8F8000000F0CB
:100670000700A8420CD9D8F8000020F00700284352
:10068000C8F80000D8F8000000F00700A84238D1F0
:100690002068410707D5D9F80010E26821F4E0612D
:1006A0001143C9F80010000708D5D9F800002169E6
:1006B00020F4605040EAC100C9F80000D9F80020D9
:1006C00002F00C00082841F20020C0F27A004DD15F
:1006D00041F29C13C2F38341C0F60003595CD2037C
:1006E00038D440F60010C0F23D0048433EE000BF61
:1006F000606859F8041C022808D0012826D1890313
:1007000006D4012001B0BDE8F08300BF8901F8D50F
:10071000D9F8001021F003010843C9F80000FFF7E1
:10072000B9FE064641F28837D9F80000616800F04A
:100730000C00B0EB810F98D0FFF7ACFE801BB842E5
:10074000F2D9032001B0BDE8F08300BF8907D8D5F6
:10075000DEE700BFD9F8002041F29A13C2F340420D
:10076000C0F600039A5C4843B0FBF2F0D9F80010E1
:1007700041F28A12C1F30311C0F60002515C40F24B
:10078000080220FA01F140F20400C2F20000006801
:10079000C2F200021160FFF7A5FE002001B0BDE823
:1007A000F0830000002804BF012070472DE9F041CC
:1007B00082B00446007841F20006C007C4F2020687
:1007C0000CD0706800F00C00042840F08180306884
:1007D000800303D56068002800F0468120788007F8
:1007E0001BD5706810F00C0F09D0706800F00C0079
:1007F000082840F087807068C00300F1838030686B
:10080000800703D52069012840F02E813068616996
:1008100020F0F80040EAC10030602078000713D4CF
:10082000207840072CD4E569002D00F0188170680D
:1008300000F00C00082840F0A780012D40F0048152
:10084000012002B0BDE8F081A069002800F084809A
:100850000020C4F242200121C0F88014FFF71AFEE4
:10086000054600BF706A800700F1B280FFF712FEF4
:10087000401B0228F6D9032002B0BDE8F08100BF7A
:10088000F0695FEAC00808D4F06940F08050F06178
:10089000F06900F080500090009847F20007C4F221
:1008A00000073868C00549D4386840F48070386063
:1008B000FFF7F0FD054600BF3868C0053ED4FFF7DE
:1008C000E9FD401B6428F7D9032002B0BDE8F081A0
:1008D000706800F00C00082803D17068C0033FF571
:1008E00076AF61683068002900F00C81B1F5A02F67
:1008F00000F00081B1F5803F40F01A8140F4803073
:100900001CE100BF2069002840F20000C4F2422030
:1009100000F0888001210160FFF7BCFD054600BFA3
:10092000306880073FF572AFFFF7B4FD401B022827
:10093000F6D9032002B0BDE8F08100BFE168306A5B
:10094000002900F09D80052900F09280012940F0E7
:10095000AF8040F00100B1E00020C4F2422000214D
:10096000C0F88014FFF796FD054600BF706A800747
:100970007FF556AFFFF78EFD401B0228F6D9032006
:1009800002B0BDE8F08100BF0027C4F2422700207A
:100990003866FFF77FFD022D05460DD130688001D6
:1009A00040F1DE80FFF776FD401B02284FF0030088
:1009B000F4D902B0BDE8F081306880014FD5FFF76F
:1009C00069FD401B02284FF00300F5D9F1E700BF95
:1009D00040F20800C2F20000006844F6D351C1F2B0
:1009E0006201A0FB0101480A019000BF00BF01980D
:1009F000411E002801913FF413AF00BF0198411E32
:100A0000002801913FF40CAF00BF0198411E00285F
:100A100001913FF405AF00BF0198411E00280191EC
:100A2000E4D1FDE600210160FFF734FD054600BF7B
:100A3000306880077FF5F1AEFFF72CFD401B0228E0
:100A40004FF00300F4D9B4E77068216A00F48032F3
:100A50008A4209D1616A00F47010884204D10020F2
:100A600002B0BDE8F08100BF012002B0BDE8F08116
:100A700040F004003062306A40F001001EE000BF28
:100A800020F001003062306A20F004003062FFF78D
:100A900001FD054641F28837306A800720D5FFF70F
:100AA000F9FC401BB8424FF00300F5D981E700BFC5
:100AB00020F001003062306A20F004003062FFF75D
:100AC000E9FC054641F28837306A800708D4FFF711
:100AD000E1FC401BB842F7D9032002B0BDE8F08129
:100AE000B8F1000F3FF59FAEF06920F08050F06143
:100AF00099E600BF40F480203060306840F48030D8
:100B00001CE000BF20F480303060306820F480208A
:100B10003060FFF7BFFC0546306880037FF55EAEAE
:100B2000FFF7B8FC401B64284FF00300F4D940E7FE
:100B300020F480303060306820F480203060FFF78F
:100B4000A9FC0546306880033FF548AEFFF7A2FCDC
:100B5000401B6428F6D9032002B0BDE8F08100BF35
:100B6000206AB0F5803F05D17168A26821F4003198
:100B7000114371607168626A21F474111143084372
:100B8000706001203866FFF785FC044630688001FC
:100B90003FF565AFFFF77EFC001B02284FF0030016
:100BA000F4D906E770B528B1416A29B10021016185
:100BB000142106E0012070BD4168B1F5827F02D0AA
:100BC0001C21002242500026866290F8511029B95B
:100BD00080F85060054600F039F82846022180F878
:100BE000511090E82E0002F482720C6803F4044362
:100BF00024F040040C601A4405F4006305691A44AB
:100C000005F0020345691A4405F001038569C469CA
:100C10001A4405F400731A4404F03803046A1A44B1
:100C200004F08003846A1A4304F400531A430A60F0
:100C3000042202EA15424A60CA6922F40062CA61CB
:100C40000121466580F85110304670BDB0B586B0C0
:100C500040F60004C4F20104006804F520520021AB
:100C600090420591CDE90311029101D006B0B0BDCB
:100C700041F21800C4F20200026802AD42F4805250
:100C80000260026802F480520192019A026842F006
:100C900004020260006800F0040001900198A020A6
:100CA000CDE90201049120462946FFF7E5FA4020EC
:100CB0000290022003900320059020462946FFF76A
:100CC000DBFA06B0B0BD00002DE9F04182B01D4650
:100CD00016460F460446FFF7DDFB94F85110012934
:100CE0000ED18046002F4FF0010018BF002E03D117
:100CF00002B0BDE8F08100BF94F85000012803D194
:100D0000022002B0BDE8F081012084F850000320E9
:100D1000002184F8510061652763A686E686A163F9
:100D2000A187E187A0682164B0F5004F2068616465
:100D300007D1016821F040010160016841F4804160
:100D400001600168490603D4016841F04001016077
:100D50006168731EE268B1FA81F1B3FA83F349095D
:100D60005B09B2F5006F41EA030139D131B137F8BF
:100D7000021BC1602763E08E0138E086E08E002808
:100D800070D0681C0BD11AE0216B31F8022BC260C5
:100D90002163E08E0138E086E08E002862D0206872
:100DA00081688907F0D4FFF775FBA0EB0800A84223
:100DB000F2D338E0FFF76EFBE08E002852D02068B7
:100DC00081688907F6D5216B31F8022BC260216357
:100DD000E08E0138E086E08E0028F0D142E000BFCE
:100DE00039B139780173206B01302063E08E01380E
:100DF000E086E08EB0B3681C0BD123E0216B09784C
:100E00000173206B01302063E08E0138E086E08EB4
:100E100040B3206881688907F0D4FFF73BFBA0EB63
:100E20000800A842F3D3012084F85100002084F880
:100E30005000032002B0BDE8F08100BFFFF72AFB9D
:100E4000E08E78B1206881688907F7D5216B097831
:100E50000173206B01302063E08E0138E086E08E64
:100E60000028EFD12046022101222B46CDF8008038
:100E700000F046F840B92046802100222B46CDF8EC
:100E8000008000F03DF828B1606D40F02000606502
:100E900020206065A06838B9002001902068C168F2
:100EA0000191806801900198012084F85100002090
:100EB00084F85000606D002818BF012002B0BDE822
:100EC000F0810000411E0020B0EB116F1CBF01201B
:100ED00070474EF21002CEF2000251604EF62351DE
:100EE000CEF20001F0230B70072190601160704773
:100EF000FEE70000FEE70000FEE70000704700008C
:100F00002DE9F04381B0089C984615460E4681466F
:100F1000FFF7C0FA201A00EB0804FFF7BBFA40F213
:100F20000801C2F200010968C1F3CB3161430091AD
:100F3000D9F800108A683240921BB2FA82F2520944
:100F4000AA423DD0074618F1010031D0FFF7A2FABE
:100F5000C01BA04238D2009800990028A1F10101DD
:100F60000091D9F80010896808BF044601EA06001C
:100F7000801BB0FA80F04009A842E7D120E000BF12
:100F800088683040801BB0FA80F04009A84217D032
:100F900088683040801BB0FA80F04009A8420FD02A
:100FA00088683040801BB0FA80F04009A84207D022
:100FB00088683040801BB0FA80F04009A842DFD139
:100FC000002001B0BDE8F083D9E900014268B1F525
:100FD000827F22F0E00242600BD1D9F80810B1F50F
:100FE000004F02D0B1F5806F03D1016821F04001BC
:100FF0000160D9F82810B1F5005F07D1016821F42C
:1010000000510160016841F400510160012089F83C
:101010005100002089F85000032001B0BDE8F083A2
:1010200070470000FFF73CBA70470000FEE7000081
:1010300090B0FFF743FA00240120CDE90B44CDE93D
:10104000094406900A904FF4E0104FF480310225D5
:101050000F9006A8CDE90714CDE90D51FFF7A2FBCB
:1010600020B1EFF3108072B6FEE700BF0F20CDE98C
:1010700001054FF48060CDE9040401A80221039426
:10108000FFF7B2FA20B1EFF3108072B6FEE700BFAF
:10109000002641F21800CDE90866CDE90666C4F2E3
:1010A0000200016840F6004441F02001016001683F
:1010B000C4F2010401F020010191019901680022AC
:1010C00041F00401016001684FF4006701F0040180
:1010D00001910199016841F00801016000684FF435
:1010E000006100F00800019001982046FFF7CCF95C
:1010F000102006ADCDE90606A4F5806029460896C5
:10110000FFF7BAF80120CDE9070602200990204632
:1011100029460697FFF7B0F840F2700004F5105129
:10112000C2F200004FF40072C0E900160A21C0E9C3
:101130000266C0E904668261C0E90866C0E90A6126
:10114000FFF730FD20B1EFF3108072B6FEE700BF6D
:1011500040F27004C2F200042046AE214FF47A72CD
:1011600000F002F8F8E7000080B582B08DF80510B5
:10117000110A8DF806108DF807200DF105010322E4
:101180006423FFF7A1FD02B080BD00000000000055
:101190000000010203040607080901020203040516
:1011A000060708090A0B0C0D0E0F1010D0110008CD
:1011B000000000201000000050010008E0110008AD
:1011C00010000020C00600007001000800000000B0
:1011D000010000001000000000127A000000000072
:04000005080000ED02
:00000001FF
