:020000040800F2
:10000000D8060020B5010008D1110008C911000868
:10001000CD1100087102000805130008000000005F
:10002000000000000000000000000000F9120008BD
:100030007502000800000000D5110008FD1200083C
:10004000CF010008CF010008CF010008CF01000850
:10005000CF010008CF010008CF010008CF01000840
:10006000CF010008CF010008CF010008CF01000830
:10007000CF010008CF010008CF010008CF01000820
:10008000CF010008CF010008CF010008CF01000810
:10009000CF010008CF010008CF010008CF01000800
:1000A000CF010008CF010008CF010008CF010008F0
:1000B000CF010008CF010008CF010008CF010008E0
:1000C000CF010008CF010008CF010008CF010008D0
:1000D000CF010008CF010008CF010008CF010008C0
:1000E000CF010008CF010008CF01000800F002F89E
:1000F00000F050F814A696E8000CB244B344DA4578
:1001000001D100F047F8BAE80F000FA696E83000DA
:10011000A5EB040504EB0607AAEB0704A7F101070A
:100120004FEA15154FEA3414A4F10104AC4201D38F
:1001300000F030F813F0010F18BFFB1A43F0010371
:1001400000F001F8DBE718474C1300006C130000C7
:10015000103A24BF78C878C1FAD8520724BF30C8F3
:1001600030C144BF04680C60704700007047000055
:100170000023002400250026103A28BF78C1FBD8B0
:10018000520728BF30C148BF0B6070471FB51FBD65
:1001900010B510BD00F031F81146FFF7F7FF01F080
:1001A000B3F800F04FF803B4FFF7F2FF03BC00F020
:1001B00057F800000948804709480047FEE7FEE776
:1001C000FEE7FEE7FEE7FEE7FEE7FEE7FEE7FEE707
:1001D00004480549054A064B704700000113000812
:1001E000ED000008D8000020D8060020D80200202A
:1001F000D8020020704770477047754600F02CF811
:10020000AE4605006946534620F00700854618B003
:1002100020B5FFF7DDFFBDE820404FF000064FF0AE
:1002200000074FF000084FF0000BAC46ACE8C009E7
:10023000ACE8C009ACE8C009ACE8C00921F007018E
:100240008D46704710B50446AFF300802046BDE8E8
:100250001040FFF7A8BF00000048704710000020C2
:1002600001491820ABBEFEE72600020070470000DF
:10027000FEE70000704700002DE9F04F82B00E68E5
:10028000002E00F0FD8041F20042C4F2010204237E
:1002900040F2004E904208BF03234FF6FF7CC4F2A9
:1002A000010E009300240123C1F2100C4FF0000A4C
:1002B0004FF000094BE000BF41F20002C4F201021E
:1002C000009F904208BF022704F00C030F229A40BF
:1002D0002BEA020207FA03F34FEA9A051A4346F89B
:1002E00025204E6840F20C45F202DEF8082054BF8B
:1002F00022EA080242EA0802C4F20105CEF8082008
:100300002A68B30254BF22EA080242EA08022A60BD
:10031000B303DEF8042054BF22EA080242EA0802CE
:10032000F303CEF80420DEF800204FF0010354BFA1
:1003300022EA080242EA0802CEF800200E680AF11A
:10034000010A36FA0AF204F1040400F0998003FA73
:100350000AFB16EA0B08F1D04E68664512DC122E35
:1003600056D8DFE806F0350B4D49555555555555CE
:100370005555555555555545510000BFD1F80C9070
:1003800046E000BF4FF6FF72C1F2210296420FDC39
:100390000022C1F2110296421AD00022C1F21202CA
:1003A000964215D00022C1F22102964210D02FE0D1
:1003B0000022C1F2220296420AD00022C1F231028A
:1003C000964205D00022C1F23202964220D100BFEF
:1003D0008A684AB1012A14BFC0F814B0C0F810B03E
:1003E0004FF0080914E000BF4FF0040910E000BF0F
:1003F000CA6802F104090BE04FF0000908E000BFF1
:10040000CA6802F1080903E0CA6802F10C0900BFDA
:1004100002462646B8F5807F24BF0432203E176886
:100420000F25B54027EA050509FA06F6354315609C
:10043000CA79D2067FF582AF41F21803C4F20203F3
:100440001A68AEF57E7642F001021A601A6802F070
:1004500001020192019A2AF0030256F802B040F616
:100460000002C4F20102904208D040F60042C4F2F9
:10047000010290427FF420AF012725E7002723E700
:1004800002B0BDE8F08F0000002A08BF0904016136
:100490007047000040F2D000C2F2000000687047D0
:1004A00040F2000040F2D001C2F20000C2F20001AE
:1004B00000780A68104408607047000080B542F276
:1004C0000000C4F20200016841F010010160032045
:1004D00000F07AF80F2000F005F800F027F800206F
:1004E00080BD000070B540F20006C2F2000640F286
:1004F00008013278C2F200014FF47A730968B3FB45
:10050000F2F20446B1FBF2F1084600F047FE0F2C70
:100510004FF0010508D838B94FF0FF3021460022CE
:10052000002500F025F87460284670BD82B041F2C5
:100530001800C4F202000168022241F001010160CA
:10054000016801F0010101910199416841F0805178
:100550004160406800F08050009000980420C4F290
:100560000100016862F31A61016002B07047000087
:1005700010B54EF60C5CCEF2000CDCF80030C3F384
:10058000022E8EF00704042C28BF0424BEF10303BE
:100590004FF0FF3E0EFA04F438BF0023A143994008
:1005A0000EFA03F39A43114300F00F0200F1604387
:1005B0000901043A03F564436244002848BF02F18C
:1005C0000C03197010BD00004EF60C51CEF2000164
:1005D0000A684FF6FF031A4060F30A2242F0806077
:1005E00040F0FD7008607047002804BF012070478C
:1005F0002DE9F04381B042F20008C4F2020804463B
:10060000D8F800000D4600F0070088420CD2D8F858
:10061000000020F007002843C8F80000D8F80000C8
:1006200000F00700A8426CD1206841F2040981075C
:10063000C4F2020917D5410705D5D9F8001041F4D5
:10064000E061C9F80010010705D5D9F8001041F4A0
:100650006051C9F80010D9F80010A26821F0F0012B
:100660001143C9F80010C00742D1D8F8000000F0CB
:100670000700A8420CD9D8F8000020F00700284352
:10068000C8F80000D8F8000000F00700A84238D1F0
:100690002068410707D5D9F80010E26821F4E0612D
:1006A0001143C9F80010000708D5D9F800002169E6
:1006B00020F4605040EAC100C9F80000D9F80020D9
:1006C00002F00C00082841F20020C0F27A004DD15F
:1006D00041F28243C2F38341C0F60003595CD20366
:1006E00038D440F60010C0F23D0048433EE000BF61
:1006F000606859F8041C022808D0012826D1890313
:1007000006D4012001B0BDE8F08300BF8901F8D50F
:10071000D9F8001021F003010843C9F80000FFF7E1
:10072000B9FE064641F28837D9F80000616800F04A
:100730000C00B0EB810F98D0FFF7ACFE801BB842E5
:10074000F2D9032001B0BDE8F08300BF8907D8D5F6
:10075000DEE700BFD9F8002041F28043C2F34042F7
:10076000C0F600039A5C4843B0FBF2F0D9F80010E1
:1007700041F27042C1F30311C0F60002515C40F235
:10078000080220FA01F140F20400C2F20000006801
:10079000C2F200021160FFF7A5FE002001B0BDE823
:1007A000F0830000002804BF012070472DE9F041CC
:1007B00082B00446007841F20006C007C4F2020687
:1007C0000CD0706800F00C00042840F08180306884
:1007D000800303D56068002800F0468120788007F8
:1007E0001BD5706810F00C0F09D0706800F00C0079
:1007F000082840F087807068C00300F1838030686B
:10080000800703D52069012840F02E813068616996
:1008100020F0F80040EAC10030602078000713D4CF
:10082000207840072CD4E569002D00F0188170680D
:1008300000F00C00082840F0A780012D40F0048152
:10084000012002B0BDE8F081A069002800F084809A
:100850000020C4F242200121C0F88014FFF71AFEE4
:10086000054600BF706A800700F1B280FFF712FEF4
:10087000401B0228F6D9032002B0BDE8F08100BF7A
:10088000F0695FEAC00808D4F06940F08050F06178
:10089000F06900F080500090009847F20007C4F221
:1008A00000073868C00549D4386840F48070386063
:1008B000FFF7F0FD054600BF3868C0053ED4FFF7DE
:1008C000E9FD401B6428F7D9032002B0BDE8F081A0
:1008D000706800F00C00082803D17068C0033FF571
:1008E00076AF61683068002900F00C81B1F5A02F67
:1008F00000F00081B1F5803F40F01A8140F4803073
:100900001CE100BF2069002840F20000C4F2422030
:1009100000F0888001210160FFF7BCFD054600BFA3
:10092000306880073FF572AFFFF7B4FD401B022827
:10093000F6D9032002B0BDE8F08100BFE168306A5B
:10094000002900F09D80052900F09280012940F0E7
:10095000AF8040F00100B1E00020C4F2422000214D
:10096000C0F88014FFF796FD054600BF706A800747
:100970007FF556AFFFF78EFD401B0228F6D9032006
:1009800002B0BDE8F08100BF0027C4F2422700207A
:100990003866FFF77FFD022D05460DD130688001D6
:1009A00040F1DE80FFF776FD401B02284FF0030088
:1009B000F4D902B0BDE8F081306880014FD5FFF76F
:1009C00069FD401B02284FF00300F5D9F1E700BF95
:1009D00040F20800C2F20000006844F6D351C1F2B0
:1009E0006201A0FB0101480A019000BF00BF01980D
:1009F000411E002801913FF413AF00BF0198411E32
:100A0000002801913FF40CAF00BF0198411E00285F
:100A100001913FF405AF00BF0198411E00280191EC
:100A2000E4D1FDE600210160FFF734FD054600BF7B
:100A3000306880077FF5F1AEFFF72CFD401B0228E0
:100A40004FF00300F4D9B4E77068216A00F48032F3
:100A50008A4209D1616A00F47010884204D10020F2
:100A600002B0BDE8F08100BF012002B0BDE8F08116
:100A700040F004003062306A40F001001EE000BF28
:100A800020F001003062306A20F004003062FFF78D
:100A900001FD054641F28837306A800720D5FFF70F
:100AA000F9FC401BB8424FF00300F5D981E700BFC5
:100AB00020F001003062306A20F004003062FFF75D
:100AC000E9FC054641F28837306A800708D4FFF711
:100AD000E1FC401BB842F7D9032002B0BDE8F08129
:100AE000B8F1000F3FF59FAEF06920F08050F06143
:100AF00099E600BF40F480203060306840F48030D8
:100B00001CE000BF20F480303060306820F480208A
:100B10003060FFF7BFFC0546306880037FF55EAEAE
:100B2000FFF7B8FC401B64284FF00300F4D940E7FE
:100B300020F480303060306820F480203060FFF78F
:100B4000A9FC0546306880033FF548AEFFF7A2FCDC
:100B5000401B6428F6D9032002B0BDE8F08100BF35
:100B6000206AB0F5803F05D17168A26821F4003198
:100B7000114371607168626A21F474111143084372
:100B8000706001203866FFF785FC044630688001FC
:100B90003FF565AFFFF77EFC001B02284FF0030016
:100BA000F4D906E770B528B1416A29B10021016185
:100BB000142106E0012070BD4168B1F5827F02D0AA
:100BC0001C21002242500026866290F8511029B95B
:100BD00080F85060054600F039F82846022180F878
:100BE000511090E82E0002F482720C6803F4044362
:100BF00024F040040C601A4405F4006305691A44AB
:100C000005F0020345691A4405F001038569C469CA
:100C10001A4405F400731A4404F03803046A1A44B1
:100C200004F08003846A1A4304F400531A430A60F0
:100C3000042202EA15424A60CA6922F40062CA61CB
:100C40000121466580F85110304670BD70B586B000
:100C500040F60004C4F20104006804F520510026A7
:100C600088420596CDE90366029601D006B070BDB4
:100C700041F21800C4F20200016802AD41F4805153
:100C80000160016801F4805101910199016841F00E
:100C9000040101600068294600F0040001900198F9
:100CA000A020029002200390032005902046FFF729
:100CB000E3FA4020CDE90206204629460496FFF7D4
:100CC000DBFA06B070BD00002DE9F04182B00446A9
:100CD00090F85100012819D160681D4617460E464C
:100CE000B0F5827F01D1A068A0B1FFF7D3FB8046A9
:100CF000002E4FF0010018BF002F03D102B0BDE855
:100D0000F08100BF94F85000012811D1022002B0F8
:100D1000BDE8F081042084F8510020463146324677
:100D20003B46009500F0D0F802B0BDE8F08100BF6E
:100D3000012084F850000420002184F851006165EE
:100D4000A663A787E7872163A186E186A26820685A
:100D5000B2F5004F2164616438D00168490640D57E
:100D6000E168E08F002944D000287BD0681C0CD1BA
:100D70001BE000BFC068A16B21F8020BA163E08FEC
:100D80000138E087E08F00286CD020688168C907AF
:100D9000F0D1FFF77FFBA0EB0800A842F2D342E0BE
:100DA000FFF778FBE08F00285CD020688168C907D6
:100DB000F6D0C068A16B21F8020BA163E08F013867
:100DC000E087E08F0028F0D14CE000BF016821F0FF
:100DD00040010160016821F4804101600168490619
:100DE000BED4016841F040010160E168E08F002954
:100DF000BAD1B8B3681C0CD124E000BF007BA16B52
:100E00000870A06B0130A063E08F0138E087E08FAD
:100E100040B320688168C907F0D1FFF73BFBA0EB26
:100E20000800A842F3D3012084F85100002084F880
:100E30005000032002B0BDE8F08100BFFFF72AFB9D
:100E4000E08F78B120688168C907F7D0007BA16B7B
:100E50000870A06B0130A063E08F0138E087E08F5D
:100E60000028EFD16068B0F5827F11D1A068B0F59D
:100E7000004F02D0B0F5806F0AD12168B0F5806FC5
:100E80000A6822F040020A6002D12046012101E0F6
:100E90002046802100222B46CDF8008000F09CF9EE
:100EA00028B1606D40F02000606520206065012061
:100EB00084F85100002084F85000606D002818BFAD
:100EC000012002B0BDE8F0812DE9F04383B01E4659
:100ED00015460F460446FFF7DDFA94F85110814697
:100EE000012909D1002F4FF0010018BF002D0FD1AB
:100EF00003B0BDE8F08300BF6068B0F5827F0DD11C
:100F000004294FF00200F3D1A1680029EAD0EFE7ED
:100F1000002EEDD094F85000012803D1022003B038
:100F2000BDE8F083012084F8500094F851000021BE
:100F300004281CBF052084F851006165A563E6877D
:100F4000A6872763E6862068A68621646164016817
:100F5000490603D4016841F0400101606168731ED5
:100F6000E268B1FA81F1B3FA83F3DDF82880490928
:100F70005B09B2F5006F41EA030165D131B137F881
:100F8000021BC1602763E08E0138E086012518F15D
:100F9000010032D102E000BFFFF77CFAE08E18B901
:100FA000E08F002800F0B8802068816889070CD5A0
:100FB000E18E51B1012D08D1216B002531F8022BB2
:100FC000C2602163E18E0139E1868168C907E3D0FF
:100FD000E18F0029E0D0C068A16B012521F8020B48
:100FE000A163E08F0138E087D6E700BFFFF752FA30
:100FF000A0EB0900404580F0AF80E08E18B9E08F8B
:10100000002800F089802068816889070CD5E18E6E
:1010100051B1012D08D1216B002531F8022BC2609E
:101020002163E18E0139E1868168C907DED0E18F55
:101030000029DBD0C068A16B012521F8020BA16358
:10104000E08F0138E087D1E739B139780173206B3F
:1010500001302063E08E0138E086012518F101009F
:1010600032D101E0FFF716FAE08E10B9E08F0028C8
:1010700052D02068816889070ED5E18E61B1012DBB
:101080000AD1216B002509780173216B2068013199
:101090002163E18E0139E1868168C907E2D0E18FE1
:1010A0000029DFD0C068A16B01250870A06B01305A
:1010B000A063E08F0138E087D4E700BFFFF7EAF9CB
:1010C000A0EB0900404547D2E08E08B9E08F18B385
:1010D0002068816889070ED5E18E61B1012D0AD1A2
:1010E000216B002509780173216B20680131216390
:1010F000E18E0139E1868168C907DFD0E18F0029DF
:10110000DCD0C068A16B01250870A06B0130A06322
:10111000E08F0138E087D1E72046022101224346D3
:10112000CDF8009000F058F840B920468021002208
:101130004346CDF8009000F04FF8B8B1606D40F034
:101140002000606520206065002084F850000120A8
:1011500003B0BDE8F08300BF012084F851000020F7
:1011600084F85000032003B0BDE8F083A06838B9CC
:10117000002002902068C168029180680290029865
:10118000012084F85100002084F85000606D002890
:1011900018BF012003B0BDE8F0830000411E00200D
:1011A000B0EB116F1CBF012070474EF21002CEF25F
:1011B000000251604EF62351CEF20001F0230B7075
:1011C0000721906011607047FEE70000FEE7000015
:1011D000FEE70000704700002DE9F04381B0089C55
:1011E000984615460E468146FFF754F9201A00EB43
:1011F0000804FFF74FF940F20801C2F20001096844
:10120000C1F3CB3161430091D9F800108A683240B4
:10121000921BB2FA82F25209AA423DD0074618F157
:10122000010031D0FFF736F9C01BA04238D2009838
:1012300000990028A1F101010091D9F800108968F6
:1012400008BF044601EA0600801BB0FA80F040099E
:10125000A842E7D120E000BF88683040801BB0FA88
:1012600080F04009A84217D088683040801BB0FA4F
:1012700080F04009A8420FD088683040801BB0FA47
:1012800080F04009A84207D088683040801BB0FA3F
:1012900080F04009A842DFD1002001B0BDE8F08312
:1012A000D9E900014268B1F5827F22F0E002426094
:1012B0000BD1D9F80810B1F5004F02D0B1F5806F0D
:1012C00003D1016821F040010160D9F82810B1F57F
:1012D000005F07D1016821F400510160016841F409
:1012E00000510160012089F85100002089F8500068
:1012F000032001B0BDE8F08370470000FFF7D0B8CD
:1013000070470000FEE7000090B0FFF7D7F8002418
:101310000120CDE90B44CDE9094406900A904FF431
:10132000E0104FF4803102250F9006A8CDE9071494
:10133000CDE90D51FFF736FA20B1EFF3108072B608
:10134000FEE700BF0F20CDE901054FF48060CDE935
:10135000040401A802210394FFF746F920B1EFF33A
:10136000108072B6FEE700BF002541F21800CDE9FB
:101370000855CDE90655C4F20200016840F60004A4
:1013800041F0200101600168C4F2010401F0200174
:10139000019101990168002241F004010160006897
:1013A000102100F004000190019820461026FFF75C
:1013B0006BF80120CDE907050220099006A9204617
:1013C0000696FEF759FF04F5205140F27004C2F270
:1013D0000004204640F8041F4FF482714FF400725D
:1013E0001823C0E901150A21C0E90355C0E90552D7
:1013F000C0E90735C0E90955C162FFF7D3FB28B141
:10140000EFF3108072B600BFFEE700BF251D00BFDE
:101410002846214600F004F8204600F01BF8F7E7C4
:1014200070B540F60006C4F201060C46054630468B
:1014300010210022FFF728F82846214603226423C2
:10144000FFF742FC304610210122BDE87040FFF753
:101450001BB800000178AE2918BF7047B0F8010032
:1014600040F2CC0100BA000CC2F2000108807047C3
:101470000000000000000000010203040607080944
:10148000010202030405060708090A0B0C0D0E0FE2
:1014900010100000B8140008000000201000000028
:1014A00050010008C814000810000020C806000001
:1014B00070010008000000000100000010000000A2
:0814C00000127A000000000098
:04000005080000ED02
:00000001FF
